{
  "_format": "hh-sol-artifact-1",
  "contractName": "Registry",
  "sourceName": "contracts/Registry.sol",
  "abi": [
    {
      "anonymous": false,
      "inputs": [
        {
          "indexed": true,
          "internalType": "address",
          "name": "previousOwner",
          "type": "address"
        },
        {
          "indexed": true,
          "internalType": "address",
          "name": "newOwner",
          "type": "address"
        }
      ],
      "name": "OwnershipTransferred",
      "type": "event"
    },
    {
      "anonymous": false,
      "inputs": [
        {
          "indexed": false,
          "internalType": "string",
          "name": "_name",
          "type": "string"
        },
        {
          "indexed": false,
          "internalType": "string",
          "name": "_server",
          "type": "string"
        }
      ],
      "name": "ServerAdded",
      "type": "event"
    },
    {
      "anonymous": false,
      "inputs": [
        {
          "indexed": false,
          "internalType": "string",
          "name": "_name",
          "type": "string"
        },
        {
          "indexed": false,
          "internalType": "string",
          "name": "_hash",
          "type": "string"
        }
      ],
      "name": "SubgraphPublished",
      "type": "event"
    },
    {
      "anonymous": false,
      "inputs": [
        {
          "indexed": false,
          "internalType": "string",
          "name": "_name",
          "type": "string"
        },
        {
          "indexed": false,
          "internalType": "string",
          "name": "_hash",
          "type": "string"
        },
        {
          "indexed": false,
          "internalType": "string",
          "name": "_server",
          "type": "string"
        }
      ],
      "name": "SubgraphSynced",
      "type": "event"
    },
    {
      "inputs": [
        {
          "internalType": "string",
          "name": "a",
          "type": "string"
        },
        {
          "internalType": "string",
          "name": "b",
          "type": "string"
        }
      ],
      "name": "compareStrings",
      "outputs": [
        {
          "internalType": "bool",
          "name": "",
          "type": "bool"
        }
      ],
      "stateMutability": "pure",
      "type": "function"
    },
    {
      "inputs": [
        {
          "internalType": "string",
          "name": "_name",
          "type": "string"
        }
      ],
      "name": "getServers",
      "outputs": [
        {
          "internalType": "string[]",
          "name": "",
          "type": "string[]"
        }
      ],
      "stateMutability": "view",
      "type": "function"
    },
    {
      "inputs": [],
      "name": "owner",
      "outputs": [
        {
          "internalType": "address",
          "name": "",
          "type": "address"
        }
      ],
      "stateMutability": "view",
      "type": "function"
    },
    {
      "inputs": [
        {
          "internalType": "string",
          "name": "_name",
          "type": "string"
        },
        {
          "internalType": "string",
          "name": "_hash",
          "type": "string"
        }
      ],
      "name": "publishSubgraph",
      "outputs": [],
      "stateMutability": "nonpayable",
      "type": "function"
    },
    {
      "inputs": [
        {
          "internalType": "string",
          "name": "_subgraphName",
          "type": "string"
        },
        {
          "internalType": "string",
          "name": "_server",
          "type": "string"
        }
      ],
      "name": "registerServer",
      "outputs": [],
      "stateMutability": "nonpayable",
      "type": "function"
    },
    {
      "inputs": [],
      "name": "renounceOwnership",
      "outputs": [],
      "stateMutability": "nonpayable",
      "type": "function"
    },
    {
      "inputs": [
        {
          "internalType": "string",
          "name": "_name",
          "type": "string"
        },
        {
          "internalType": "string",
          "name": "_hash",
          "type": "string"
        },
        {
          "internalType": "string",
          "name": "_server",
          "type": "string"
        }
      ],
      "name": "subgraphSynced",
      "outputs": [],
      "stateMutability": "nonpayable",
      "type": "function"
    },
    {
      "inputs": [
        {
          "internalType": "address",
          "name": "newOwner",
          "type": "address"
        }
      ],
      "name": "transferOwnership",
      "outputs": [],
      "stateMutability": "nonpayable",
      "type": "function"
    }
  ],
  "bytecode": "0x608060405234801561001057600080fd5b5061002d61002261003260201b60201c565b61003a60201b60201c565b6100fe565b600033905090565b60008060009054906101000a900473ffffffffffffffffffffffffffffffffffffffff169050816000806101000a81548173ffffffffffffffffffffffffffffffffffffffff021916908373ffffffffffffffffffffffffffffffffffffffff1602179055508173ffffffffffffffffffffffffffffffffffffffff168173ffffffffffffffffffffffffffffffffffffffff167f8be0079c531659141344cd1fd0a4f28419497f9722a3daafe3b4186f6b6457e060405160405180910390a35050565b6113ff8061010d6000396000f3fe608060405234801561001057600080fd5b50600436106100885760003560e01c80638da5cb5b1161005b5780638da5cb5b146100ff578063bed34bba1461011d578063c6a29aba1461014d578063f2fde38b1461016957610088565b806304ca006f1461008d578063715018a6146100bd578063801de701146100c75780638c49fd08146100e3575b600080fd5b6100a760048036038101906100a29190610c95565b610185565b6040516100b4919061103d565b60405180910390f35b6100c561027f565b005b6100e160048036038101906100dc9190610cda565b610307565b005b6100fd60048036038101906100f89190610d46565b6103f3565b005b610107610678565b6040516101149190611022565b60405180910390f35b61013760048036038101906101329190610cda565b6106a1565b604051610144919061105f565b60405180910390f35b61016760048036038101906101629190610cda565b6106bc565b005b610183600480360381019061017e9190610c6c565b61093e565b005b606060028383604051610199929190610ff2565b9081526020016040518091039020805480602002602001604051908101604052809291908181526020016000905b828210156102735783829060005260206000200180546101e690611299565b80601f016020809104026020016040519081016040528092919081815260200182805461021290611299565b801561025f5780601f106102345761010080835404028352916020019161025f565b820191906000526020600020905b81548152906001019060200180831161024257829003601f168201915b5050505050815260200190600101906101c7565b50505050905092915050565b610287610a36565b73ffffffffffffffffffffffffffffffffffffffff166102a5610678565b73ffffffffffffffffffffffffffffffffffffffff16146102fb576040517f08c379a00000000000000000000000000000000000000000000000000000000081526004016102f29061111d565b60405180910390fd5b6103056000610a3e565b565b61030f610a36565b73ffffffffffffffffffffffffffffffffffffffff1661032d610678565b73ffffffffffffffffffffffffffffffffffffffff1614610383576040517f08c379a000000000000000000000000000000000000000000000000000000000815260040161037a9061111d565b60405180910390fd5b80600183604051610394919061100b565b908152602001604051809103902090805190602001906103b5929190610b02565b507fde69759f87555edafcfcbd1808d358e2520e0965af0aab1c3368507e0807861b82826040516103e792919061107a565b60405180910390a15050565b6103fb610a36565b73ffffffffffffffffffffffffffffffffffffffff16610419610678565b73ffffffffffffffffffffffffffffffffffffffff161461046f576040517f08c379a00000000000000000000000000000000000000000000000000000000081526004016104669061111d565b60405180910390fd5b6000600383604051610481919061100b565b9081526020016040518091039020805480602002602001604051908101604052809291908181526020016000905b8282101561055b5783829060005260206000200180546104ce90611299565b80601f01602080910402602001604051908101604052809291908181526020018280546104fa90611299565b80156105475780601f1061051c57610100808354040283529160200191610547565b820191906000526020600020905b81548152906001019060200180831161052a57829003601f168201915b5050505050815260200190600101906104af565b50505050905060005b81518110156105dd5760006105b98383815181106105ab577f4e487b7100000000000000000000000000000000000000000000000000000000600052603260045260246000fd5b6020026020010151856106a1565b905080156105c957505050610673565b5080806105d5906112cb565b915050610564565b506003836040516105ee919061100b565b908152602001604051809103902082908060018154018082558091505060019003906000526020600020016000909190919091509080519060200190610635929190610b02565b507f9163bccfd8afc89db21b9de9b95dfaea0c186bb4df3c55e5675d549bf7d56335848484604051610669939291906110b1565b60405180910390a1505b505050565b60008060009054906101000a900473ffffffffffffffffffffffffffffffffffffffff16905090565b60008180519060200120838051906020012014905092915050565b6106c4610a36565b73ffffffffffffffffffffffffffffffffffffffff166106e2610678565b73ffffffffffffffffffffffffffffffffffffffff1614610738576040517f08c379a000000000000000000000000000000000000000000000000000000000815260040161072f9061111d565b60405180910390fd5b600060028360405161074a919061100b565b9081526020016040518091039020805480602002602001604051908101604052809291908181526020016000905b8282101561082457838290600052602060002001805461079790611299565b80601f01602080910402602001604051908101604052809291908181526020018280546107c390611299565b80156108105780601f106107e557610100808354040283529160200191610810565b820191906000526020600020905b8154815290600101906020018083116107f357829003601f168201915b505050505081526020019060010190610778565b50505050905060005b81518110156108a6576000610882838381518110610874577f4e487b7100000000000000000000000000000000000000000000000000000000600052603260045260246000fd5b6020026020010151856106a1565b905080156108925750505061093a565b50808061089e906112cb565b91505061082d565b506002836040516108b7919061100b565b9081526020016040518091039020829080600181540180825580915050600190039060005260206000200160009091909190915090805190602001906108fe929190610b02565b507f926c6fc42139853499b648521de3e72a05055ec46f8e2f506a5b9c1a77cb31db838360405161093092919061107a565b60405180910390a1505b5050565b610946610a36565b73ffffffffffffffffffffffffffffffffffffffff16610964610678565b73ffffffffffffffffffffffffffffffffffffffff16146109ba576040517f08c379a00000000000000000000000000000000000000000000000000000000081526004016109b19061111d565b60405180910390fd5b600073ffffffffffffffffffffffffffffffffffffffff168173ffffffffffffffffffffffffffffffffffffffff161415610a2a576040517f08c379a0000000000000000000000000000000000000000000000000000000008152600401610a21906110fd565b60405180910390fd5b610a3381610a3e565b50565b600033905090565b60008060009054906101000a900473ffffffffffffffffffffffffffffffffffffffff169050816000806101000a81548173ffffffffffffffffffffffffffffffffffffffff021916908373ffffffffffffffffffffffffffffffffffffffff1602179055508173ffffffffffffffffffffffffffffffffffffffff168173ffffffffffffffffffffffffffffffffffffffff167f8be0079c531659141344cd1fd0a4f28419497f9722a3daafe3b4186f6b6457e060405160405180910390a35050565b828054610b0e90611299565b90600052602060002090601f016020900481019282610b305760008555610b77565b82601f10610b4957805160ff1916838001178555610b77565b82800160010185558215610b77579182015b82811115610b76578251825591602001919060010190610b5b565b5b509050610b849190610b88565b5090565b5b80821115610ba1576000816000905550600101610b89565b5090565b6000610bb8610bb38461116e565b61113d565b905082815260208101848484011115610bd057600080fd5b610bdb848285611257565b509392505050565b600081359050610bf2816113b2565b92915050565b60008083601f840112610c0a57600080fd5b8235905067ffffffffffffffff811115610c2357600080fd5b602083019150836001820283011115610c3b57600080fd5b9250929050565b600082601f830112610c5357600080fd5b8135610c63848260208601610ba5565b91505092915050565b600060208284031215610c7e57600080fd5b6000610c8c84828501610be3565b91505092915050565b60008060208385031215610ca857600080fd5b600083013567ffffffffffffffff811115610cc257600080fd5b610cce85828601610bf8565b92509250509250929050565b60008060408385031215610ced57600080fd5b600083013567ffffffffffffffff811115610d0757600080fd5b610d1385828601610c42565b925050602083013567ffffffffffffffff811115610d3057600080fd5b610d3c85828601610c42565b9150509250929050565b600080600060608486031215610d5b57600080fd5b600084013567ffffffffffffffff811115610d7557600080fd5b610d8186828701610c42565b935050602084013567ffffffffffffffff811115610d9e57600080fd5b610daa86828701610c42565b925050604084013567ffffffffffffffff811115610dc757600080fd5b610dd386828701610c42565b9150509250925092565b6000610de98383610ea9565b905092915050565b610dfa8161120f565b82525050565b6000610e0b826111ae565b610e1581856111d1565b935083602082028501610e278561119e565b8060005b85811015610e635784840389528151610e448582610ddd565b9450610e4f836111c4565b925060208a01995050600181019050610e2b565b50829750879550505050505092915050565b610e7e81611221565b82525050565b6000610e908385611204565b9350610e9d838584611257565b82840190509392505050565b6000610eb4826111b9565b610ebe81856111e2565b9350610ece818560208601611266565b610ed7816113a1565b840191505092915050565b6000610eed826111b9565b610ef781856111f3565b9350610f07818560208601611266565b610f10816113a1565b840191505092915050565b6000610f26826111b9565b610f308185611204565b9350610f40818560208601611266565b80840191505092915050565b6000610f596026836111f3565b91507f4f776e61626c653a206e6577206f776e657220697320746865207a65726f206160008301527f64647265737300000000000000000000000000000000000000000000000000006020830152604082019050919050565b6000610fbf6020836111f3565b91507f4f776e61626c653a2063616c6c6572206973206e6f7420746865206f776e65726000830152602082019050919050565b6000610fff828486610e84565b91508190509392505050565b60006110178284610f1b565b915081905092915050565b60006020820190506110376000830184610df1565b92915050565b600060208201905081810360008301526110578184610e00565b905092915050565b60006020820190506110746000830184610e75565b92915050565b600060408201905081810360008301526110948185610ee2565b905081810360208301526110a88184610ee2565b90509392505050565b600060608201905081810360008301526110cb8186610ee2565b905081810360208301526110df8185610ee2565b905081810360408301526110f38184610ee2565b9050949350505050565b6000602082019050818103600083015261111681610f4c565b9050919050565b6000602082019050818103600083015261113681610fb2565b9050919050565b6000604051905081810181811067ffffffffffffffff8211171561116457611163611372565b5b8060405250919050565b600067ffffffffffffffff82111561118957611188611372565b5b601f19601f8301169050602081019050919050565b6000819050602082019050919050565b600081519050919050565b600081519050919050565b6000602082019050919050565b600082825260208201905092915050565b600082825260208201905092915050565b600082825260208201905092915050565b600081905092915050565b600061121a8261122d565b9050919050565b60008115159050919050565b600073ffffffffffffffffffffffffffffffffffffffff82169050919050565b6000819050919050565b82818337600083830152505050565b60005b83811015611284578082015181840152602081019050611269565b83811115611293576000848401525b50505050565b600060028204905060018216806112b157607f821691505b602082108114156112c5576112c4611343565b5b50919050565b60006112d68261124d565b91507fffffffffffffffffffffffffffffffffffffffffffffffffffffffffffffffff82141561130957611308611314565b5b600182019050919050565b7f4e487b7100000000000000000000000000000000000000000000000000000000600052601160045260246000fd5b7f4e487b7100000000000000000000000000000000000000000000000000000000600052602260045260246000fd5b7f4e487b7100000000000000000000000000000000000000000000000000000000600052604160045260246000fd5b6000601f19601f8301169050919050565b6113bb8161120f565b81146113c657600080fd5b5056fea264697066735822122082c216fa117dd042c183f7e90a28dd5703719daccac211d208dbd3561eb6ed2d64736f6c63430008000033",
  "linkReferences": {},
  "deployedLinkReferences": {}
}